S01600006669726D776172652E7369676E65642E733337D9
S315080000000000042001010008FFFFFFFFFFFFFFFFBC
S31508000010FFFFFFFFFFFFFFFFFFFFFFFFFFFFFFFFE2
S31508000020FFFFFFFFFFFFFFFFFFFFFFFFFFFFFFFFD2
S31508000030FFFFFFFF00100008FFFFFFFFFFFFFFFFA6
S31508000040FFFFFFFFFFFFFFFFFFFFFFFFFFFFFFFFB2
S31508000050FFFFFFFFFFFFFFFFFFFFFFFFFFFFFFFFA2
S31508000060FFFFFFFFFFFFFFFFFFFFFFFFFFFFFFFF92
S31508000070FFFFFFFFFFFFFFFFFFFFFFFFFFFFFFFF82
S31508000080FFFFFFFFFFFFFFFFFFFFFFFFFFFFFFFF72
S31508000090FFFFFFFFFFFFFFFFFFFFFFFFFFFFFFFF62
S315080000A0FFFFFFFFFFFFFFFFFFFFFFFFFFFFFFFF52
S315080000B0FFFFFFFFFFFFFFFFFFFFFFFFFFFFFFFF42
S315080000C0FFFFFFFFFFFFFFFFFFFFFFFFFFFFFFFF32
S315080000D0FFFFFFFFFFFFFFFFFFFFFFFFFFFFFFFF22
S315080000E0FFFFFFFFFFFFFFFFFFFFFFFFFFFFFFFF12
S315080000F0FFFFFFFFFFFFFFFFFFFFFFFFFFFFFFFF02
S31508000100C046FEE7FFFFFFFFFFFFFFFFFFFFFFFF02
S31508000110FFFFFFFFFFFFFFFFFFFFFFFFFFFFFFFFE1
S31508000120FFFFFFFFFFFFFFFFFFFFFFFFFFFFFFFFD1
S31508000130FFFFFFFFFFFFFFFFFFFFFFFFFFFFFFFFC1
S31508000140FFFFFFFFFFFFFFFFFFFFFFFFFFFFFFFFB1
S3150800100013B779FAC925DDB7ADF3CFE0F1B614B851
S315080010100200010001000000501000081000000046
S315080010200000010000000000DEADBEEF0011223313
S31508001030445566778899AABB0000000000000000A6
S315080010400000000000000000000000000000000092
S31508001050F34F57B7432CA69D23D85D4BDBAB88824D
S31508001060DDF4185F62C89898DCA0031CD51E815A67
S315080010704A6F999058509397995689FA0C47E1F612
S315080010804C647F3E0A6A2E3126E74943B8FED0EA09
S5030109F2
S70500000000FA
